{
  "contractName": "Notar",
  "abi": [
    {
      "constant": true,
      "inputs": [
        {
          "name": "",
          "type": "uint256"
        }
      ],
      "name": "candidates",
      "outputs": [
        {
          "name": "id",
          "type": "uint32"
        },
        {
          "name": "name",
          "type": "string"
        },
        {
          "name": "votes",
          "type": "uint256"
        }
      ],
      "payable": false,
      "stateMutability": "view",
      "type": "function"
    },
    {
      "constant": true,
      "inputs": [],
      "name": "debugval",
      "outputs": [
        {
          "name": "",
          "type": "uint256"
        }
      ],
      "payable": false,
      "stateMutability": "view",
      "type": "function"
    },
    {
      "constant": true,
      "inputs": [],
      "name": "cancount",
      "outputs": [
        {
          "name": "",
          "type": "uint32"
        }
      ],
      "payable": false,
      "stateMutability": "view",
      "type": "function"
    },
    {
      "inputs": [],
      "payable": false,
      "stateMutability": "nonpayable",
      "type": "constructor"
    },
    {
      "constant": false,
      "inputs": [
        {
          "name": "ad",
          "type": "address"
        }
      ],
      "name": "testbal",
      "outputs": [
        {
          "name": "",
          "type": "uint256"
        }
      ],
      "payable": false,
      "stateMutability": "nonpayable",
      "type": "function"
    },
    {
      "constant": false,
      "inputs": [
        {
          "name": "vid",
          "type": "uint256"
        },
        {
          "name": "cid",
          "type": "uint256"
        }
      ],
      "name": "castVote",
      "outputs": [
        {
          "name": "",
          "type": "string"
        }
      ],
      "payable": false,
      "stateMutability": "nonpayable",
      "type": "function"
    }
  ],
  "bytecode": "0x608060405234801561001057600080fd5b5033600260046101000a81548173ffffffffffffffffffffffffffffffffffffffff021916908373ffffffffffffffffffffffffffffffffffffffff1602179055506104db806100616000396000f3fe608060405234801561001057600080fd5b50600436106100575760003560e01c806317832dff1461005c5780632c0a3f89146100b45780633477ee2e1461016557806336f4220f14610226578063b865d90914610244575b600080fd5b61009e6004803603602081101561007257600080fd5b81019080803573ffffffffffffffffffffffffffffffffffffffff16906020019092919050505061026e565b6040518082815260200191505060405180910390f35b6100ea600480360360408110156100ca57600080fd5b810190808035906020019092919080359060200190929190505050610293565b6040518080602001828103825283818151815260200191508051906020019080838360005b8381101561012a57808201518184015260208101905061010f565b50505050905090810190601f1680156101575780820380516001836020036101000a031916815260200191505b509250505060405180910390f35b6101916004803603602081101561017b57600080fd5b8101908080359060200190929190505050610370565b604051808463ffffffff1663ffffffff16815260200180602001838152602001828103825284818151815260200191508051906020019080838360005b838110156101e95780820151818401526020810190506101ce565b50505050905090810190601f1680156102165780820380516001836020036101000a031916815260200191505b5094505050505060405180910390f35b61022e610442565b6040518082815260200191505060405180910390f35b61024c610448565b604051808263ffffffff1663ffffffff16815260200191505060405180910390f35b60008173ffffffffffffffffffffffffffffffffffffffff1631600381905550919050565b6060600260049054906101000a900473ffffffffffffffffffffffffffffffffffffffff1673ffffffffffffffffffffffffffffffffffffffff163373ffffffffffffffffffffffffffffffffffffffff16146102ef57600080fd5b6001151560008085815260200190815260200160002060009054906101000a900460ff1615151461034f57600160008085815260200190815260200160002060006101000a81548160ff02191690831515021790555061034e8261045e565b5b60405180606001604052806028815260200161048860289139905092915050565b60016020528060005260406000206000915090508060000160009054906101000a900463ffffffff1690806001018054600181600116156101000203166002900480601f0160208091040260200160405190810160405280929190818152602001828054600181600116156101000203166002900480156104325780601f1061040757610100808354040283529160200191610432565b820191906000526020600020905b81548152906001019060200180831161041557829003601f168201915b5050505050908060020154905083565b60035481565b600260009054906101000a900463ffffffff1681565b60016000828152602001908152602001600020600201600081548092919060010191905055505056fe596f757220766f746520686173206265656e207265636f72646564207375636365737366756c6c79a165627a7a72305820905fb38f61a713bfede2d5628d7aedaddf0ab20b39b52ed77976056b3d3014de0029",
  "source": "pragma solidity ^0.5.0;\n\ncontract Notar{\n\n  struct Candidate{\n    uint32 id;\n    string name;\n    uint votes;\n  }\n  mapping(uint => bool) private voted;\n  mapping(uint => Candidate) public candidates;\n  uint32 public cancount;\n  address private _owner;\n  uint256 public debugval;\n\n  modifier onlyOwner {\n    require(msg.sender == _owner);\n    _;\n  }\n\n\n  constructor() public{\n    _owner = msg.sender;\n  }\n\n  function testbal(address ad) public returns(uint256){\n    debugval = address(ad).balance;\n  }\n\n  function castVote(uint vid, uint cid) public onlyOwner returns(string memory){\n\n      if(voted[vid] != true){\n        voted[vid] = true;\n        recordVote(cid);\n      }\n      return \"Your vote has been recorded successfully\";\n}\n\n  function newCandidate(string memory _name) private{\n    candidates[cancount] = Candidate(cancount, _name, 0);\n    cancount++;\n  }\n\n  function recordVote(uint _id) private{\n    candidates[_id].votes++;\n  }\n\n}\n",
  "sourcePath": "/home/scar/Blockchain/sdtnotar.io/contracts/Notar.sol",
  "compiler": {
    "name": "solc",
    "version": "0.5.8+commit.23d335f2.Emscripten.clang"
  },
  "schemaVersion": "3.0.16",
  "updatedAt": "2019-09-27T16:39:52.760Z",
  "devdoc": {
    "methods": {}
  },
  "userdoc": {
    "methods": {}
  }
}